:1000000002308A00452A0000FF00030E8301A10090
:100010000A08A0008A010408A2007708A300780853
:10002000A4007908A5007A08A600831383128C30F7
:100030008400001C1D280C182E2822088400230888
:10004000F7002408F8002508F9002608FA0020081F
:100050008A00210E8300FF0E7F0E09008A110A120A
:1000600073280A108A100A1182077F34BF34DF34E4
:10007000EF34F734FB34FD34FE340A108A100A11D1
:100080008207C034F934A434B034993492348234C1
:10009000F8348034903488348334C634A1348634C0
:1000A0008E340A108A100A118207033407340B3485
:1000B0000F344908CB00CA014A08073C031C7228C8
:1000C000CB1B642806126528061683160612061333
:1000D0008312061383160613831206170310CB0D23
:1000E000CA0A5C280800B7013708073C031CCD2862
:1000F0002F303707840083130008C5003708C60077
:100100004508C70046083120F800C800C80948085B
:10011000C90059204708C800C8094808C900592023
:10012000831686138312861383168612831286160D
:1001300083168612831286120230C500F930C6007B
:100140000330C602031CAE28463084008313000827
:100150000319AE28AC28AC28800BAB28C50B9E2811
:10016000FF30C500C6004508C700C7094708C900D9
:1001700059204608C700C7094708C90059208316F7
:1001800086138312861383168612831286168316AD
:10019000861283128612B70A74288E01EC308F0003
:1001A00077308E000C108A110A121D284308F801BE
:1001B00042020318DE284208F700EA28F701083057
:1001C000C400C20DF70D430877020318F700F80DBD
:1001D000C40BE12808002C08C2000A30C300D62056
:1001E00077083D20F800AF002C08C2000A30C30099
:1001F000D62078083D20F800B000BF30B1002B08B1
:10020000C2000A30C300D62077083D20F800B200B3
:100210002B08C2000A30C300D62078083D20F80021
:10022000B300BF30B4002A08C2000A30C300D62091
:1002300077083D20F800B5002A08C2000A30C30044
:10024000D62078083D20F800B6008A110A12822ACA
:10025000423084008313000803193B290630F8005C
:10026000F701F70B3129F80B30297B30F700F70B3A
:100270003729800B2E290800FF30BB00BA00BC01D3
:10028000BC1B46293C08033C031C75293C08512033
:10029000C200831688018312420888008316061460
:1002A000831206185629BB017529702983168614F6
:1002B000831286185F290130BB00752970298316C7
:1002C00006158312061968290230BB0075297029AA
:1002D000831686158312861970290330BB00752991
:1002E0001E30C2002821BC0A40293B0F7829A329CF
:1002F0003C08C2000430C300F701F80142080310B3
:100300004318F707F70CF80CC318F707F70CF80CAD
:100310004319F707F70CF80CC319F707F70CF80C9B
:10032000431AF707F70CF80CC31AF707F70CF80C89
:10033000431BF707F70CF80CC31BF707F70CF80C77
:100340003B087807BA003A08F80008003D08BF00EB
:100350003E08C000A7018B1BA7178B133F08C900DD
:100360005920A71B8B1783168812831288128316B5
:100370000812831208168316081283120812080046
:100380003C217808B800380FC629D6290130C200B0
:1003900028213C217808B8003C217808B9001E309B
:1003A000C2002821380839020319CC293808F8007E
:1003B0007808AD002D0FDD29292AAD08031DE3299A
:1003C0003D14A621292A2D0BEA290430A8063D1048
:1003D000A621292A2D08023C031DF1290830A80670
:1003E000292A2D08033C031DF8291030A806292AC4
:1003F0002D08043C031DFF292030A806292A2D08BA
:10040000053C031D062A4030A806292A2D08063C73
:10041000031D0D2A8030A806292A2D08073C031D3C
:10042000142A0130C106292A2D08083C031D1B2A65
:100430000230C106292A2D08033C031D232A41113D
:10044000281E4115292A2D08093C031D292A04309C
:10045000C1068A110A12832A2908093C0318422A74
:10046000A901AC0A2C083A3C0318422AAC01AB0A99
:100470002B083A3C0318422AAB01AA0A2A08163C68
:10048000031CAA018A110A12842A03081F39830057
:10049000B701B801B901831603170908C0398900EB
:1004A00003131F129F120030031788008312870165
:1004B000880189018313FF300313AF00B000B1003E
:1004C000B200B300B400B500B6000F30831695003B
:1004D0008113003088000108C039073881003D30A1
:1004E0008312810083160C1435308312900083161A
:1004F0000C14C03083128B048E01EC308F007730E7
:100500008E00EB28C0292C2A0B1D8A2A0B11A90A60
:080510003D308100812A6300E7
:04400E00E22FFF3F5F
:00000001FF
;PIC16F887
;CRC=D1BE  CREATED="06-Jul-22 17:17"
